:100000000C942A000C9447000C9447000C94470071
:100010000C9447000C9447000C9447000C94470044
:100020000C9447000C9447000C94600F0C94890FBB
:100030000C9447000C9436110C9489110C946011A7
:100040000C9447000C9447000C9447000C94470014
:100050000C94470011241FBECFE5D8E0DEBFCDBF12
:1000600011E0A0E6B0E0E0E7F8E202C005900D92F2
:10007000A636B107D9F711E0A6E6B1E001C01D929E
:10008000AC3CB107E1F70E947F130C9436140C943A
:100090000000EF92FF920F93DF93CF93CDB7DEB7BF
:1000A00060970FB6F894DEBF0FBECDBFA82F002318
:1000B00009F461C07E010894E11CF11C88E0F7019D
:1000C00011928A95E9F729833A834B835C836D8388
:1000D0007E83AF83988780E2801BE82FFF27E7FDB0
:1000E000F09549815A816B817C81181684F01986BC
:1000F0001A861B861C86882799278E1B9F0B04C097
:10010000440F551F661F771F8A95D2F728C0202FEE
:10011000332727FD3095DB01CA01022E04C0880F6A
:10012000991FAA1FBB1F0A94D2F789879A87AB87AA
:10013000BC8704C07695679557954795EA95D2F7A1
:100140008D819E81AF81B88504C0880F991FAA1F39
:10015000BB1F2A95D2F7482B592B6A2B7B2B4D8737
:100160005E876F87788B29853A854B855C856D85A1
:100170007E85AF8598898A2F60960FB6F894DEBF8A
:100180000FBECDBFCF91DF910F91FF90EF900895FB
:10019000AEE5B0E0EEECF0E00C94FF13A8E04E0109
:1001A0000894811C911CF4016A2E11926A94E9F75B
:1001B00029833A834B835C836D837E838F83988707
:1001C000CE010996FC011192AA95E9F7A986BA8693
:1001D000CB86DC86ED86FE860F87188B29843A84D1
:1001E0004B845C84ED84FE840F85188969807A8055
:1001F0008B809C806DA67EA68FA698AA6D807E803F
:100200008F809884E114F1040105110509F0B3C34E
:10021000621473048404950408F03DC100E02016C4
:1002200000E0300601E0400600E0500688F41FEFD1
:10023000211631044104510439F030F048E0E42E35
:10024000F12C012D112D18C0EE24FF24870114C0BC
:1002500020E0221620E0320620E0420621E052068D
:1002600030F038E1E32EF12C012D112D05C020E1F5
:10027000E22EF12C012D112DD201C1010E2C04C052
:10028000B695A795979587950A94D2F7805A9F4F70
:10029000DC012C9180E290E0A0E0B0E08E199F0993
:1002A000A00BB10B7C018D01E21AF10801091109C3
:1002B000E114F10401051105A1F10E2C04C0220C7A
:1002C000331C441C551C0A94D2F7A40193010E2C34
:1002D00004C0220F331F441F551F0A94D2F780E237
:1002E00090E08E199F096DA47EA48FA498A804C0E5
:1002F00096948794779467948A95D2F7622A732AA2
:10030000842A952AADA4BEA4CFA4D8A804C0AA0C60
:10031000BB1CCC1CDD1CEA94D2F7ADA6BEA6CFA6B2
:10032000D8AA6201EE24FF24CDAADEAAEFAAF8AE75
:10033000920181012070307009AF1AAF2BAF3CAF32
:10034000C401B301A70196010E94DD137B018C015A
:10035000C401B3012DA93EA94FA958AD0E94DD13D8
:10036000C901DA013C014D01C401B30129AD3AAD27
:100370004BAD5CAD0E94BE139B01AC018701FF2415
:10038000EE24ADA4BEA4CFA4D8A8C601AA27BB273B
:1003900057016801A82AB92ACA2ADB2AA216B3067D
:1003A000C406D506E0F40894610871088108910834
:1003B000A20CB31CC41CD51CA214B304C404D504E1
:1003C00070F0A216B306C406D50648F40894610876
:1003D000710881089108A20CB31CC41CD51CA21A78
:1003E000B30AC40AD50AC601B5012DA93EA94FA971
:1003F00058AD0E94DD137B018C01C601B5012DA90A
:100400003EA94FA958AD0E94DD13C901DA015C0174
:100410006D01C601B50129AD3AAD4BAD5CAD0E9491
:10042000BE139B01AC018701FF24EE248DA59EA580
:10043000AFA5B8A9A070B070E82AF92A0A2B1B2B27
:10044000E216F30604071507C0F40894A108B108E2
:10045000C108D108E20CF31C041D151DE214F304BD
:100460000405150550F0E216F3060407150728F4F5
:100470000894A108B108C108D108D3019927882799
:1004800086017501E82AF92A0A2B1B2BE9AAFAAA88
:100490000BAB1CABCFC4211431044104510471F4E3
:1004A00061E070E080E090E020E030E040E050E08B
:1004B0000E94DD13C901DA011C012D0100E02016A4
:1004C00000E0300601E0400600E0500688F41FEF2F
:1004D000211631044104510431F028F048E050E085
:1004E00060E070E017C040E050E060E070E012C0F3
:1004F00020E0221620E0320620E0420621E05206EB
:1005000028F048E150E060E070E004C040E150E0D5
:1005100060E070E0D201C101042E04C0B695A79539
:10052000979587950A94D2F7805A9F4FDC012C91BA
:10053000E0E2EE2EF12C012D112DD801C701841B14
:10054000950BA60BB70B821B9109A109B109009766
:10055000A105B10561F464015301A218B308C408F0
:10056000D50831E0632E712C812C912C1EC16F9621
:100570008FAF6F97082E04C0220C331C441C551CEF
:100580000A94D2F7EE2DE81B640153010E2E04C02D
:10059000D694C794B794A7940A94D2F7A401930170
:1005A0006F960FAC6F9704C0220F331F441F551F67
:1005B0000A94D2F76DA47EA48FA498A80E2E04C02E
:1005C00096948794779467940A94D2F78401730180
:1005D000E22AF32A042B152BE9A6FAA60BA71CA7DF
:1005E0003201882499249201810120703070219673
:1005F0000CAF1DAF2EAF3FAF2197C601B501A401CF
:1006000093010E94DD137B018C01C601B501A40199
:1006100093010E94DD13C901DA0125968CAF9DAFCD
:10062000AEAFBFAF2597BC01CD0121962CAD3DAD3E
:100630004EAD5FAD21970E94BE139B01AC018701B7
:10064000FF24EE24A9A4BAA4CBA4DCA4C601AA2743
:10065000BB275C016D01AE28BF28C02AD12AA21693
:10066000B306C406D50660F525966CAD7DAD8EAD9E
:100670009FAD2597615070408040904025966CAFAB
:100680007DAF8EAF9FAF2597A20CB31CC41CD51CA9
:10069000A214B304C404D50498F0A216B306C40689
:1006A000D50670F4615070408040904025966CAF44
:1006B0007DAF8EAF9FAF2597A20CB31CC41CD51C79
:1006C000A21AB30AC40AD50AC601B501A40193014E
:1006D0000E94DD137B018C01C601B501A4019301C9
:1006E0000E94DD13C901DA013C014D01C401B301CF
:1006F00021962CAD3DAD4EAD5FAD21970E94BE134E
:100700009B01AC018701FF24EE2489A59AA5ABA526
:10071000BCA5A070B07057016801A82AB92ACA2ADE
:10072000DB2AA216B306C406D506E0F408946108D5
:10073000710881089108A20CB31CC41CD51CA2141A
:10074000B304C404D50470F0A216B306C406D506DB
:1007500048F408946108710881089108A20CB31C40
:10076000C41CD51C8DA59EA5AFA5B8A96F960FACCE
:100770006F9704C0880F991FAA1FBB1F0A94D2F756
:100780008DA79EA7AFA7B8ABA21AB30AC40AD50A11
:100790002596ECACFDAC0EAD1FAD2597D701992782
:1007A0008827682A792A8A2A9B2A820122273327C6
:1007B00029960CAF1DAF2EAF3FAF2997A201910133
:1007C000407050702D962CAF3DAF4EAF5FAF2D9760
:1007D000C601B50129962CAD3DAD4EAD5FAD299753
:1007E0000E94DD137B018C01C601B50129962CAD59
:1007F0003DAD4EAD5FAD29970E94DD13C901DA0111
:1008000061968CAF9DAFAEAFBFAF6197BC01CD011C
:100810002D962CAD3DAD4EAD5FAD2D970E94BE1314
:100820009B01AC018701FF24EE24ADA4BEA4CFA49C
:10083000D8A8C601AA27BB2757016801A82AB92A48
:10084000CA2ADB2AA216B306C406D50660F561964D
:100850006CAD7DAD8EAD9FAD6197615070408040B5
:10086000904061966CAF7DAF8EAF9FAF6197A20C49
:10087000B31CC41CD51CA214B304C404D50498F042
:10088000A216B306C406D50670F4615070408040CD
:10089000904061966CAF7DAF8EAF9FAF6197A20C19
:1008A000B31CC41CD51CA21AB30AC40AD50AC601BB
:1008B000B50129962CAD3DAD4EAD5FAD29970E9497
:1008C000DD137B018C01C601B50129962CAD3DAD30
:1008D0004EAD5FAD29970E94DD13C901DA015C01BD
:1008E0006D01C601B5012D962CAD3DAD4EAD5FAD90
:1008F0002D970E94BE139B01AC018701FF24EE24BB
:100900008DA59EA5AFA5B8A9A070B070E82AF92A58
:100910000A2B1B2BE216F30604071507C0F40894F4
:10092000A108B108C108D108E20CF31C041D151D73
:10093000E214F3040405150550F0E216F30604076B
:10094000150728F40894A108B108C108D1086196D8
:10095000ECACFDAC0EAD1FAD6197D7019927882790
:1009600096018501082B192B2A2B3B2B09AB1AABBF
:100970002BAB3CAB62C26E147F048006910608F478
:1009800051C220E0E21620E0F20621E0020720E05A
:10099000120788F43FEFE316F1040105110531F069
:1009A00028F048E050E060E070E017C040E050E020
:1009B00060E070E012C040E0E41640E0F40640E081
:1009C000040741E0140728F048E150E060E070E0DF
:1009D00004C040E150E060E070E0D801C701042E9F
:1009E00004C0B695A795979587950A94D2F7805A33
:1009F0009F4FDC012C9130E2A32EB12CC12CD12CC5
:100A0000D601C501841B950BA60BB70B821B910960
:100A1000A109B1090097A105B10589F4E614F7040D
:100A20000805190508F4F2C16DA47EA48FA498A846
:100A3000621473048404950408F0E8C1F3C16E964F
:100A40008FAF6E97082E04C0EE0CFF1C001F111F05
:100A50000A94D2F76A2D681BD201C101062E04C088
:100A6000B695A795979587950A94D2F75C016D0185
:100A7000AE28BF28C02AD12AADA2BEA2CFA2D8A636
:100A8000720161016E960FAC6E9704C0CC0CDD1C38
:100A9000EE1CFF1C0A94D2F7C9A2DAA2EBA2FCA2B8
:100AA00064015301062E04C0D694C794B794A7944A
:100AB0000A94D2F7D401C3016E960FAC6E9704C0AE
:100AC000880F991FAA1FBB1F0A94D2F7EDA4FEA49A
:100AD0000FA518A904C016950795F794E7946A9591
:100AE000D2F737014801682A792A8A2A9B2A6D8E13
:100AF0007E8E8F8E98A2EDA0FEA00FA118A53801C2
:100B000088249924980187012070307065960CAF75
:100B10001DAF2EAF3FAF6597C601B501A40193018C
:100B20000E94DD137B018C01C601B501A401930174
:100B30000E94DD13C901DA011C012D01C201B101BE
:100B400065962CAD3DAD4EAD5FAD65970E94BE1371
:100B50009B01AC018701FF24EE24AD8CBE8CCF8CB1
:100B6000D8A0C601AA27BB2757016801A82AB92A1D
:100B7000CA2ADB2AA216B306C406D50600F50894D5
:100B80002108310841085108EDA0FEA00FA118A5C9
:100B9000AE0CBF1CC01ED11EAE14BF04C006D106D1
:100BA00070F0A216B306C406D50648F408942108CE
:100BB000310841085108AE0CBF1CC01ED11EA21A3C
:100BC000B30AC40AD50AC601B501A40193010E9463
:100BD000DD137B018C01C601B501A40193010E94C4
:100BE000DD13C901DA013C014D01C401B301659671
:100BF0002CAD3DAD4EAD5FAD65970E94BE139B0120
:100C0000AC018701FF24EE248D8D9E8DAF8DB8A1A0
:100C1000A070B07057016801A82AB92ACA2ADB2A35
:100C2000A216B306C406D50600F50894610871083B
:100C3000810891086DA17EA18FA198A5A60EB71E6F
:100C4000C81ED91EA616B706C806D90670F0A21689
:100C5000B306C406D50648F40894610871088108F3
:100C60009108A60EB71EC81ED91ED601C501821B4B
:100C7000930BA40BB50B898F9A8FAB8FBC8FD101CF
:100C80009927882764015301A82AB92ACA2ADB2A8E
:100C9000A9AABAAACBAADCAA860175012FEF3FEF59
:100CA00040E050E0E222F32204231523A601662748
:100CB00077276D964CAF5DAF6EAF7FAF6D97A9A0F4
:100CC000BAA0CBA0DCA06FEF7FEF80E090E0A6227F
:100CD000B722C822D92289A19AA1ABA1BCA11D012A
:100CE00044245524C801B701A60195010E94BE13F2
:100CF00069966CAF7DAF8EAF9FAF6997C801B701A2
:100D0000A20191010E94BE133B014C016D966CAD96
:100D10007DAD8EAD9FAD6D97A60195010E94BE136E
:100D20007B018C016D966CAD7DAD8EAD9FAD6D97E9
:100D3000A20191010E94BE135B016C01A801970101
:100D4000260D371D481D591D69966CAC7DAC8EACC7
:100D50009FAC6997C401AA27BB27280F391F4A1FD8
:100D60005B1F2E153F054007510748F4E12CF12C7D
:100D700061E0062F112DAE0CBF1CC01ED11ECA0192
:100D8000AA27BB27BC01CD016A0D7B1D8C1D9D1DB3
:100D9000698C7A8C8B8C9C8C6616770688069906F3
:100DA00040F1661577058805990509F043C0D9011A
:100DB0009927882769962CAD3DAD4EAD5FAD6997FB
:100DC00040705070820F931FA41FB51F2DA53EA524
:100DD0004FA558A96E960FAC6E9704C0220F331F13
:100DE000441F551F0A94D2F7281739074A075B0793
:100DF00008F509A91AA92BA93CA9015010402040C7
:100E0000304009AB1AAB2BAB3CAB14C06624772443
:100E1000430121E030E040E050E029AB3AAB4BAB7E
:100E20005CAB0BC066247724430119AA1AAA1BAA3B
:100E30001CAA03C0662477244301FE01719688E052
:100E4000DF011D928A95E9F7A9A8BAA8CBA8DCA86A
:100E5000A98ABA8ACB8ADC8A6D8A7E8A8F8A988E22
:100E600029A93A894B895C89662D7E898F89988D5D
:100E7000C25ADF4FE2E10C941B14ABE5B0E0E3E4AF
:100E8000F7E00C94FF13A8E04E010894811C911C1C
:100E9000F4016A2E11926A94E9F729833A834B830D
:100EA0005C836D837E838F839887CE010996FC01D6
:100EB0001192AA95E9F7A986BA86CB86DC86ED86DB
:100EC000FE860F87188B29843A844B845C84AD841A
:100ED000BE84CF84D88829813A814B815C81699610
:100EE0002FAF69976A963FAF6A976B964FAF6B9734
:100EF0006C965FAF6C976C966CAC7DAC8EAC9FAC17
:100F00006C9769AA7AAA8BAA9CAA6D817E818F812F
:100F100098853B014C016DAA7EAA8FAA98AEA114B8
:100F2000B104C104D10409F004C36214730484043D
:100F3000950408F000C100E0201600E0300601E052
:100F4000400600E0500688F41FEF211631044104EA
:100F5000510439F030F088E0E82EF12C012D112DEC
:100F600018C0EE24FF24870114C040E0241640E09E
:100F7000340640E0440641E0540630F0B8E1EB2E80
:100F8000F12C012D112D05C0A0E1EA2EF12C012D2F
:100F9000112DD201C1010E2C04C0B695A7959795CD
:100FA00087950A94D2F7805A9F4FDC012C9180E2FA
:100FB00090E0A0E0B0E08E199F09A00BB10B5C019E
:100FC0006D01A21AB108C108D108A9AEBAAECBAE64
:100FD000DCAEA114B104C104D10409F43FC069AD71
:100FE000062E04C0220C331C441C551C0A94D2F754
:100FF000A4019301062E04C0220F331F441F551F66
:101000000A94D2F780E290E08A199B096C96CCACE6
:10101000DDACEEACFFAC6C9704C0F694E794D794CB
:10102000C7948A95D2F787017601E22AF32A042B26
:10103000152BEDAAFEAA0FAB18AF6C968CAD9DAD2B
:10104000AEADBFAD6C9704C0880F991FAA1FBB1F20
:101050006A95D2F789AB9AABABABBCAB32018824B3
:101060009924B201A1016070707021964CAF5DAF00
:101070006EAF7FAF21976DA97EA98FA998ADA4010E
:1010800093010E94DD137B018C016DA97EA98FA9BC
:1010900098ADA40193010E94DD13CA01B901219604
:1010A0002CAD3DAD4EAD5FAD21970E94BE139B01AF
:1010B000AC018701FF24EE24A9A8BAA8CBA8DCA81C
:1010C000C601AA27BB2757016801A82AB92ACA2A3C
:1010D000DB2AA216B306C406D50690F4A20CB31CF4
:1010E000C41CD51CA214B304C404D50448F0A21631
:1010F000B306C406D50620F4A20CB31CC41CD51C30
:10110000A21AB30AC40AD50AC601B501A401930103
:101110000E94DD137B018C01C601B501A40193017E
:101120000E94DD13CA01B90121962CAD3DAD4EAD33
:101130005FAD2197BAC1211431044104510471F407
:1011400061E070E080E090E020E030E040E050E0DE
:101150000E94DD13C901DA011C012D0100E02016F7
:1011600000E0300601E0400600E0500688F41FEF82
:10117000211631044104510439F030F068E0E62EC4
:10118000F12C012D112D18C0EE24FF24870114C06D
:1011900040E0241640E0340640E0440641E05406B6
:1011A00030F058E1E52EF12C012D112D05C040E164
:1011B000E42EF12C012D112DD201C1010E2C04C001
:1011C000B695A795979587950A94D2F7805A9F4F21
:1011D000DC012C9130E2A32EB12CC12CD12CD601F4
:1011E000C5018E199F09A00BB10B7C018D01E21A7C
:1011F000F10801091109E9AEFAAE0BAF1CAFE11419
:10120000F1040105110539F464015301A218B30872
:10121000C408D508E2C0F9AC6896FFAE68970F2CF9
:1012200004C0220C331C441C551C0A94D2F78A2D8E
:101230008F1964015301082E04C0D694C794B79443
:10124000A7940A94D2F7A401930104C0220F331F7C
:10125000441F551FFA94D2F76C966CAC7DAC8EACE3
:101260009FAC6C9704C096948794779467948A9502
:10127000D2F784017301E22AF32A042B152BEDA681
:10128000FEA60FA718AB320188249924B201A10150
:101290006070707025964CAF5DAF6EAF7FAF2597D5
:1012A000C601B501A40193010E94DD137B018C01ED
:1012B000C601B501A40193010E94DD13CA01B90161
:1012C00025962CAD3DAD4EAD5FAD25970E94BE136A
:1012D0009B01AC018701FF24EE24ADA4BEA4CFA4E2
:1012E000D8A8C601AA27BB275C016D01AE28BF287C
:1012F000C02AD12AA216B306C406D50690F4A20CC1
:10130000B31CC41CD51CA214B304C404D50448F0F7
:10131000A216B306C406D50620F4A20CB31CC41C46
:10132000D51CA21AB30AC40AD50AC601B501A40184
:1013300093010E94DD137B018C01C601B501A4015C
:1013400093010E94DD13CA01B90125962CAD3DAD74
:101350004EAD5FAD25970E94BE139B01AC01870186
:10136000FF24EE248DA59EA5AFA5B8A9A070B070EE
:1013700057016801A82AB92ACA2ADB2AA216B3068D
:10138000C406D50690F4A20CB31CC41CD51CA21430
:10139000B304C404D50448F0A216B306C406D506A7
:1013A00020F4A20CB31CC41CD51C6C96ECACFDAC98
:1013B0000EAD1FAD6C9768960FAC689704C0EE0C2D
:1013C000FF1C001F111F0A94D2F7E9AAFAAA0BAB5F
:1013D0001CABA21AB30AC40AD50A32018824992484
:1013E000B201A1016070707029964CAF5DAF6EAF15
:1013F0007FAF2997C601B501A40193010E94DD13B7
:101400007B018C01C601B501A40193010E94DD138B
:10141000CA01B90129962CAD3DAD4EAD5FAD2997FE
:101420000E94BE139B01AC018701FF24EE24A9A8F2
:10143000BAA8CBA8DCA8C601AA27BB275701680118
:10144000A82AB92ACA2ADB2AA216B306C406D506D8
:1014500090F4A20CB31CC41CD51CA214B304C40485
:10146000D50448F0A216B306C406D50620F4A20C93
:10147000B31CC41CD51CA21AB30AC40AD50AC601DF
:10148000B501A40193010E94DD137B018C01C6010B
:10149000B501A40193010E94DD13CA01B901299687
:1014A0002CAD3DAD4EAD5FAD29970E94BE139B01A3
:1014B000AC018701FF24EE2489A99AA9ABA9BCA994
:1014C000A070B070E82AF92A0A2B1B2BE216F3064B
:1014D0000407150790F4E20CF31C041D151DE2141B
:1014E000F3040405150548F0E216F3060407150792
:1014F00020F4E20CF31C041D151DE21AF30A040B80
:10150000150BD801C70109AC04C0B695A7959795EE
:1015100087950A94D2F7898B9A8BAB8BBC8B1D8AEB
:101520001E8A1F8A188E282F3A894B895C896D89FB
:101530000CC36A147B048C049D0408F409C300E006
:10154000A01600E0B00601E0C00600E0D00688F476
:101550001FEFA116B104C104D10439F030F028E026
:10156000E22EF12C012D112D18C0EE24FF2487014D
:1015700014C040E0A41640E0B40640E0C40641E0D8
:10158000D40630F098E1E92EF12C012D112D05C083
:1015900080E1E82EF12C012D112DD601C5010E2C74
:1015A00004C0B695A795979587950A94D2F7805A67
:1015B0009F4FDC012C9180E290E0A0E0B0E08E191A
:1015C0009F09A00BB10B821B9109A109B1090097DA
:1015D000A105B10509F04FC0A614B704C804D90489
:1015E00058F06C96ECACFDAC0EAD1FAD6C97E214F0
:1015F000F3040405150568F16C96ECACFDAC0EAD7A
:101600001FAD6C97E218F30804091509A4019301B2
:101610002A193B094C095D09AA24BB2465016C9673
:101620006CAD7DAD8EAD9FAD6C976E157F0580075F
:10163000910728F4B1E0AB2EB12CC12CD12CDA01EA
:10164000C9018A199B09AC09BD098DAB9EABAFAB33
:10165000B8AFE98AFA8A0B8B1C8B6DA87EA88FA87D
:1016600098AC6D8A7E8A8F8A988E2E2D3A894B8906
:101670005C896DA96AC267968FAF6797A6019501CD
:10168000082E04C0220F331F441F551F0A94D2F79F
:10169000A0E2AA2EA81A6696AFAE6697D201C10143
:1016A00004C0B695A79597958795AA94D2F76C0133
:1016B0007D01C22AD32AE42AF52AC9A6DAA6EBA616
:1016C000FCA68201710167960FAC679704C0EE0C0F
:1016D000FF1C001F111F0A94D2F7EDA2FEA20FA358
:1016E00018A76401530166960FAC669704C0D694A0
:1016F000C794B794A7940A94D2F7A401930167966C
:101700000FAC679704C0220F331F441F551F0A9464
:10171000D2F76C968CAD9DADAEADBFAD6C976696B5
:101720000FAC669704C0B695A795979587950A94D0
:10173000D2F73C014D01622A732A842A952A69A2B4
:101740007AA28BA29CA26C96ECACFDAC0EAD1FAD48
:101750006C9767960FAC679704C0EE0CFF1C001FD8
:10176000111F0A94D2F7ED8EFE8E0F8F18A349A594
:101770005AA56BA57CA53B018824992460707070E4
:101780002D964CAF5DAF6EAF7FAF2D97C601B50103
:10179000A40193010E94DD137B018C01C601B501F8
:1017A000A40193010E94DD13C901DA011C012D017E
:1017B000C201B1012D962CAD3DAD4EAD5FAD2D9763
:1017C0000E94BE139B01AC018701FF24EE24A9A057
:1017D000BAA0CBA0DCA0C601AA27BB27570168018D
:1017E000A82AB92ACA2ADB2AA216B306C406D50635
:1017F00000F508942108310841085108E9A4FAA429
:101800000BA51CA5AE0CBF1CC01ED11EAE14BF0480
:10181000C006D10670F0A216B306C406D50648F479
:1018200008942108310841085108AE0CBF1CC01EA5
:10183000D11EA21AB30AC40AD50AC601B501A40171
:1018400093010E94DD137B018C01C601B501A40147
:1018500093010E94DD13C901DA013C014D01C4016D
:10186000B3012D962CAD3DAD4EAD5FAD2D970E94D1
:10187000BE139B01AC018701FF24EE2489A19AA12C
:10188000ABA1BCA1A070B07057016801A82AB92A09
:10189000CA2ADB2AA216B306C406D50600F50894A8
:1018A000610871088108910869A57AA58BA59CA596
:1018B000A60EB71EC81ED91EA616B706C806D9069C
:1018C00070F0A216B306C406D50648F40894610861
:1018D000710881089108A60EB71EC81ED91ED60130
:1018E000C501821B930BA40BB50B898F9A8FAB8F0D
:1018F000BC8FD1019927882784017301E82AF92A2E
:101900000A2B1B2B4FEFA42E4FEFB42EC12CD12C42
:10191000AE20BF20C022D1227801002711276DA060
:101920007EA08FA098A44FEF5FEF60E070E064228C
:101930007522862297228DA19EA1AFA1B8A5BD01D7
:101940008827992765966CAF7DAF8EAF9FAF65975F
:10195000C601B501A40193010E94BE1361966CAF4C
:101960007DAF8EAF9FAF6197C601B50165962CAD77
:101970003DAD4EAD5FAD65970E94BE131B012C01BE
:10198000C801B701A40193010E94BE135B016C0161
:10199000C801B70165962CAD3DAD4EAD5FAD659705
:1019A0000E94BE137B018C01A6019501220D331DFF
:1019B000441D551D61966CAC7DAC8EAC9FAC61979F
:1019C000C401AA27BB27280F391F4A1F5B1F2A15EE
:1019D0003B054C055D0548F4812C912CE1E0AE2ED1
:1019E000B12CE80CF91C0A1D1B1DCA01AA27BB2734
:1019F00057016801A80EB91ECA1EDB1EA9013327B4
:101A0000222761968CAD9DADAEADBFAD6197A07044
:101A1000B070280F391F4A1F5B1FE98CFA8C0B8DA1
:101A20001C8DEA14FB040C051D0570F0AE14BF04F8
:101A3000C006D10669F56D8D7E8D8F8D98A16217D8
:101A400073078407950720F5DA01C9016DA07EA010
:101A50008FA098A486199709A809B909E9A4FAA43E
:101A60000BA51CA5AE18BF08C00AD10AEE24FF249E
:101A70008701281739074A075B0728F421E0E22E7F
:101A8000F12C012D112DAE18BF08C00AD10A02C0D9
:101A9000DA01C9016D8C7E8C8F8C98A0681A790A46
:101AA0008A0A9B0A498D5A8D6B8D7C8D4A195B0978
:101AB0006C097D095A016B012224332421016D8DAB
:101AC0007E8D8F8D98A1661577058805990528F478
:101AD00081E0282E312C412C512C86017501E21811
:101AE000F30804091509A801970166960FAC6697DB
:101AF00004C0220F331F441F551F0A94D2F7D4018C
:101B0000C30167960FAC679704C0B695A7959795E4
:101B100087950A94D2F7282B392B4A2B5B2B298BDC
:101B20003A8B4B8B5C8B67960FAC679704C016950E
:101B30000795F794E7940A94D2F7ED8AFE8A0F8B03
:101B4000188F3A894B895C896E2D7E898F89988D93
:101B5000C55ADF4FE2E10C941B148130D1F1813082
:101B600038F0823009F466C0833009F0C3C093C0F6
:101B7000423059F42AB381E090E002C0880F991FE7
:101B80006A95E2F7282B2ABB0895442379F48AB397
:101B900021E030E002C0220F331F6A95E2F7209562
:101BA00082238ABB8BB328232BBB0895413009F0D5
:101BB000A1C03AB381E090E002C0880F991F6A95F6
:101BC000E2F7282F209523232ABB2BB3822B8BBB34
:101BD0000895423059F427B381E090E002C0880FA5
:101BE000991F6A95E2F7282B27BB0895442379F4BF
:101BF00087B321E030E002C0220F331F6A95E2F77D
:101C00002095822387BB88B3282328BB08954130C1
:101C100009F070C037B381E090E002C0880F991FCF
:101C20006A95E2F7282F2095232327BB28B3822B20
:101C300088BB0895423059F424B381E090E002C09B
:101C4000880F991F6A95E2F7282B24BB0895442337
:101C500079F484B321E030E002C0220F331F6A958B
:101C6000E2F72095822384BB85B3282325BB089502
:101C7000413009F03FC034B381E090E002C0880FEA
:101C8000991F6A95E2F7282F2095232324BB25B3BB
:101C9000822B85BB0895423059F421B381E090E056
:101CA00002C0880F991F6A95E2F7282B21BB08957F
:101CB000442379F481B321E030E002C0220F331FC6
:101CC0006A95E2F72095822381BB82B3282322BB49
:101CD0000895413079F431B381E090E002C0880F7B
:101CE000991F6A95E2F7282F2095232321BB22B361
:101CF000822B82BB0895813029F1813038F0823007
:101D000009F43CC0833009F06EC053C0413059F42F
:101D10002BB381E090E002C0880F991F6A95E2F72B
:101D2000282B2BBB0895442309F05DC02BB381E021
:101D300090E002C0880F991F6A95E2F78095822390
:101D40008BBB0895413059F428B381E090E002C084
:101D5000880F991F6A95E2F7282B28BB0895442322
:101D600009F041C028B381E090E002C0880F991FBC
:101D70006A95E2F78095822388BB0895413059F433
:101D800025B381E090E002C0880F991F6A95E2F7C1
:101D9000282B25BB0895442331F525B381E090E03D
:101DA00002C0880F991F6A95E2F78095822385BB50
:101DB0000895413059F422B381E090E002C0880FC9
:101DC000991F6A95E2F7282B22BB0895442359F402
:101DD00022B381E090E002C0880F991F6A95E2F774
:101DE0008095822382BB08958130A9F0813030F044
:101DF0008230F1F0833081F180E008958BB321E0EF
:101E000030E0062E02C0220F331F0A94E2F7822729
:101E10008BBB89B319C088B321E030E0062E02C025
:101E2000220F331F0A94E2F7822788BB86B30CC0C7
:101E300085B321E030E0062E02C0220F331F0A9442
:101E4000E2F7822785BB83B390E002C09595879522
:101E50006A95E2F78170089582B321E030E0062EA2
:101E600002C0220F331F0A94E2F7822782BB80B39D
:101E700090E002C0959587956A95E2F78170089584
:101E8000813051F0813030F0823041F0833079F090
:101E900080E0089589B303C086B301C083B390E0A6
:101EA00002C0959587956A95E2F78170089580B391
:101EB00090E002C0959587956A95E2F78170089544
:101EC0001F920F920FB60F9211242F933F934F93AF
:101ED0005F936F937F938F939F93AF93BF93EF9392
:101EE000FF93E0916601F0916701309709F0099541
:101EF000FF91EF91BF91AF919F918F917F916F91E2
:101F00005F914F913F912F910F900FBE0F901F90B7
:101F100018951F920F920FB60F9211242F933F9393
:101F20004F935F936F937F938F939F93AF93BF93E1
:101F3000EF93FF93E0916801F0916901309709F008
:101F40000995FF91EF91BF91AF919F918F917F91F3
:101F50006F915F914F913F912F910F900FBE0F9016
:101F60001F901895FB01882379F58081882319F04B
:101F7000813051F403C083B7877F02C083B7886084
:101F800083BF83B78F7B83BF6181613051F0613044
:101F900028F0623061F06330B9F410C083B78F7EEF
:101FA00002C083B7806183BF83B78F7D05C083B7CD
:101FB0008F7E83BF83B7806283BF089583B78061BC
:101FC00083BF83B7806283BF08958823C1F56330E0
:101FD00001F1643028F4613081F0623088F407C088
:101FE000653001F16530C0F0663041F51EC083B741
:101FF000816083BF83B78D7F08C083B78E7F02C0A7
:1020000083B7816083BF83B7826083BF83B78B7FD1
:1020100014C083B78E7F02C083B7816083BF83B74C
:102020008D7F08C083B78E7F02C083B7816083BF76
:1020300083B7826083BF83B7846083BF12BE089575
:10204000882349F483B78B7F83BF83B78D7F83BF9A
:1020500083B78E7F83BF0895882309F412BE089545
:10206000882309F462BF0895882309F46CBF08959A
:10207000882319F0813041F404C089B7826089BF98
:10208000089589B7816089BF0895882319F0813048
:1020900041F404C089B78D7F89BF089589B78E7FC9
:1020A00089BF0895882319F0813051F405C07093D9
:1020B00067016093660108957093690160936801F8
:1020C0000895882319F020E030E003C082B7282F5C
:1020D00030E0C9010895CF93DF93DC01ECE7F1E034
:1020E000C0E0D0E02C2F80819181892BB9F433E0BE
:1020F000CC0FDD1F3A95E1F7FE01E458FE4FB183A6
:10210000A083DE01A258BE4F6D937C93C058DE4F72
:102110005983488381E08683178206C02F5F21960A
:102120003896CA30D105F1F6822FDF91CF9108950C
:102130008A30C8F4E82FF0E063E0EE0FFF1F6A95E5
:10214000E1F7CF0184589E4FDC011D921C92DF0104
:10215000A258BE4F1D921C92E058FE4F1182108271
:10216000FC011682178208951F9310E0812F0E94B0
:1021700098101F5F1A30D1F71F9108958A3050F4DC
:10218000E82FF0E073E0EE0FFF1F7A95E1F7E458D7
:10219000FE4F168208958A3058F4E82FF0E0A3E04D
:1021A000EE0FFF1FAA95E1F7E458FE4F81E086830A
:1021B00008951F93CF93DF9310E0C12FD0E0FE016D
:1021C00083E0EE0FFF1F8A95E1F7E458FE4F878109
:1021D0008130B1F48681882399F017820190F081D3
:1021E000E02D0995B3E0CC0FDD1FBA95E1F7C0589B
:1021F000DE4F88819981892B19F4812F0E949810D4
:102200001F5F1A30D0F2D8CFECE7F1E021E08081F7
:102210009181892B71F082819381892B29F48481AA
:10222000958193838283278382819381019793830E
:102230008283389681E0EC3CF80749F7089580E006
:1022400060E671E00E94B20F80E06DE770E00E94EE
:10225000341080E064E071E10E94521080E00E943E
:10226000381080E062E00E94E50F08951F920F92FF
:102270000FB60F9211242F933F934F935F936F9359
:102280007F938F939F93AF93BF93EF93FF93E091CF
:102290007601F0917701309711F08CB10995FF919B
:1022A000EF91BF91AF919F918F917F916F915F91CE
:1022B0004F913F912F910F900FBE0F901F90189547
:1022C0001F920F920FB60F9211242F933F934F93AB
:1022D0005F936F937F938F939F93AF93BF93EF938E
:1022E000FF93E0917801F0917901309709F0099519
:1022F000FF91EF91BF91AF919F918F917F916F91DE
:102300005F914F913F912F910F900FBE0F901F90B3
:1023100018951F920F920FB60F9211242F933F938F
:102320004F935F936F937F938F939F93AF93BF93DD
:10233000EF93FF93E0917A01F0917B01309709F0E0
:102340000995FF91EF91BF91AF919F918F917F91EF
:102350006F915F914F913F912F910F900FBE0F9012
:102360001F901895599883E389B910BC08955D9B17
:10237000FECF8CB95E9BFECF5E9A08952F923F925E
:102380004F925F926F927F928F929F92AF92BF9285
:10239000CF92DF92EF92FF920F931F93DF93CF9331
:1023A0000F92CDB7DEB76B017C0197FF0BC0F094A5
:1023B000E094D094C094C11CD11CE11CF11C8DE2AE
:1023C0000E94B71122243324442455246624772400
:1023D0008824992419829101A201B301C40101E06A
:1023E0000E944900122FB32EA42E952E862E772EF2
:1023F000682E392E02E00E944900022F010F21E0D1
:10240000011708F020E03B0DE1E03B1508F0E0E0AB
:10241000522E530E21E0531608F020E0E22B4A0D15
:1024200031E04A1508F030E04E2E440E21E044160B
:1024300008F020E0322B590D41E0591508F040E03A
:10244000932E950E21E0951608F020E0422B680DA2
:1024500031E0681508F030E0842E860E21E0861603
:1024600008F020E0322B770D41E0771508F040E0CE
:10247000732E770E21E0771608F020E0422B860DB0
:1024800031E0861508F030E0642E680E21E0681611
:1024900008F020E0B32EB22A930DB90EC701B601A1
:1024A0002AE030E040E050E00E94A3139B01AC0121
:1024B000550F220B322FA901E62F672F322F422F03
:1024C000522F1E2F100FF1E01E1708F0F0E0E62F3C
:1024D000E50DA1E0E61708F0A0E0AF2EAE0EF1E0AA
:1024E000AE1608F0F0E0AF2BE82FE40DB1E0E817EE
:1024F00008F0B0E00A2F0E0FF1E00E1708F0F0E040
:10250000BF2BE92FE90DF1E0E91708F0F0E0AB2F60
:10251000AE0F81E0AE1708F080E0F82B832F880D16
:1025200061E0831708F060E0F80F91E0F81708F019
:1025300090E0692B842F870D71E0841708F070E01C
:10254000E62FE80F91E0E81708F090E0792B852F4F
:10255000860D61E0851708F060E0780F91E078174C
:1025600008F090E0692B2B0D212E3A2C402E5A2E8C
:102570006F2E7E2E872E962E920EC701B6012AE070
:1025800030E040E050E00E94A313C901DA016C0181
:102590007D0189818F5F89831C141D041E041F0423
:1025A0000CF419CF20C09101A201B301C401EAE0EB
:1025B000AE2EBB24CC24DD24EE24FF2400E010E06A
:1025C0000E943D07822F805D0E94B7119101A201F8
:1025D000B301C4010E94C80019012A013B014C014A
:1025E000E981E150E983F981FF23E9F60F90CF916A
:1025F000DF911F910F91FF90EF90DF90CF90BF90F0
:10260000AF909F908F907F906F905F904F903F9092
:102610002F9008955F9BFECF8CB10895813039F0E3
:10262000813018F0823031F404C0579A0895569AD8
:102630000895559A0895813039F0813018F082302C
:1026400031F404C057980895569808955598089500
:102650009093790180937801089590937B01809302
:102660007A0108959093770180937601089583E02D
:1026700060E040E00E94AD0D549A83E061E042E0EA
:102680000E94AD0D539A529886E880BD599883E315
:1026900089B910BC089581B5886081BD089581B560
:1026A000886181BD81B5877F81BD089581B58861CD
:1026B00081BD81B5877F81BD81B5886081BD089569
:1026C000982F883030F481B5887F81BD81B5892B02
:1026D00081BD089580E061E00E94F40E089580E0DD
:1026E00060E00E94F40E089580E060E042E00E9405
:1026F000AD0D80E061E042E00E94AD0D08950E94C2
:10270000B41084E793E160E070E040E050E00E94A4
:102710006B108FE693E160E070E048EE53E00E94BA
:102720006B108AE693E168EE73E048EE53E00E9496
:102730006B100E941F118FB780688FBF0E94D91045
:1027400080E090E0089597FB092E05260ED057FDF6
:1027500004D033D00AD0001C38F450954095309501
:1027600021953F4F4F4F5F4F0895F6F79095809515
:10277000709561957F4F8F4F9F4F0895629FD00155
:10278000739FF001829FE00DF11D649FE00DF11D2C
:10279000929FF00D839FF00D749FF00D659FF00DDB
:1027A0009927729FB00DE11DF91F639FB00DE11DC8
:1027B000F91FBD01CF0111240895A1E21A2EAA1B11
:1027C000BB1BFD010DC0AA1FBB1FEE1FFF1FA217E1
:1027D000B307E407F50720F0A21BB30BE40BF50BDE
:1027E000661F771F881F991F1A9469F76095709567
:1027F000809590959B01AC01BD01CF0108952F926A
:102800003F924F925F926F927F928F929F92AF9280
:10281000BF92CF92DF92EF92FF920F931F93CF93CD
:10282000DF93CDB7DEB7CA1BDB0B0FB6F894DEBF64
:102830000FBECDBF09942A88398848885F846E848A
:102840007D848C849B84AA84B984C884DF80EE80D4
:10285000FD800C811B81AA81B981CE0FD11D0FB6DD
:10286000F894DEBF0FBECDBFED010895F894FFCF01
:102870000001020203030303040404040404040427
:1028800005050505050505050505050505050505F8
:1028900006060606060606060606060606060606D8
:1028A00006060606060606060606060606060606C8
:1028B00007070707070707070707070707070707A8
:1028C0000707070707070707070707070707070798
:1028D0000707070707070707070707070707070788
:1028E0000707070707070707070707070707070778
:1028F0000808080808080808080808080808080858
:102900000808080808080808080808080808080847
:102910000808080808080808080808080808080837
:102920000808080808080808080808080808080827
:102930000808080808080808080808080808080817
:102940000808080808080808080808080808080807
:1029500008080808080808080808080808080808F7
:1029600008080808080808080808080808080808E7
:062970000100000001005F
:00000001FF
